{
  "contractName": "NFTCollection",
  "abi": [
    {
      "inputs": [
        {
          "internalType": "string",
          "name": "baseURI",
          "type": "string"
        },
        {
          "internalType": "string",
          "name": "name",
          "type": "string"
        },
        {
          "internalType": "string",
          "name": "symbol",
          "type": "string"
        }
      ],
      "stateMutability": "nonpayable",
      "type": "constructor"
    },
    {
      "anonymous": false,
      "inputs": [
        {
          "indexed": true,
          "internalType": "address",
          "name": "owner",
          "type": "address"
        },
        {
          "indexed": true,
          "internalType": "address",
          "name": "approved",
          "type": "address"
        },
        {
          "indexed": true,
          "internalType": "uint256",
          "name": "tokenId",
          "type": "uint256"
        }
      ],
      "name": "Approval",
      "type": "event"
    },
    {
      "anonymous": false,
      "inputs": [
        {
          "indexed": true,
          "internalType": "address",
          "name": "owner",
          "type": "address"
        },
        {
          "indexed": true,
          "internalType": "address",
          "name": "operator",
          "type": "address"
        },
        {
          "indexed": false,
          "internalType": "bool",
          "name": "approved",
          "type": "bool"
        }
      ],
      "name": "ApprovalForAll",
      "type": "event"
    },
    {
      "anonymous": false,
      "inputs": [
        {
          "indexed": true,
          "internalType": "address",
          "name": "previousOwner",
          "type": "address"
        },
        {
          "indexed": true,
          "internalType": "address",
          "name": "newOwner",
          "type": "address"
        }
      ],
      "name": "OwnershipTransferred",
      "type": "event"
    },
    {
      "anonymous": false,
      "inputs": [
        {
          "indexed": true,
          "internalType": "address",
          "name": "from",
          "type": "address"
        },
        {
          "indexed": true,
          "internalType": "address",
          "name": "to",
          "type": "address"
        },
        {
          "indexed": true,
          "internalType": "uint256",
          "name": "tokenId",
          "type": "uint256"
        }
      ],
      "name": "Transfer",
      "type": "event"
    },
    {
      "inputs": [],
      "name": "MAX_PER_MINT",
      "outputs": [
        {
          "internalType": "uint256",
          "name": "",
          "type": "uint256"
        }
      ],
      "stateMutability": "view",
      "type": "function",
      "constant": true
    },
    {
      "inputs": [],
      "name": "MAX_SUPPLY",
      "outputs": [
        {
          "internalType": "uint256",
          "name": "",
          "type": "uint256"
        }
      ],
      "stateMutability": "view",
      "type": "function",
      "constant": true
    },
    {
      "inputs": [],
      "name": "PRICE",
      "outputs": [
        {
          "internalType": "uint256",
          "name": "",
          "type": "uint256"
        }
      ],
      "stateMutability": "view",
      "type": "function",
      "constant": true
    },
    {
      "inputs": [
        {
          "internalType": "address",
          "name": "to",
          "type": "address"
        },
        {
          "internalType": "uint256",
          "name": "tokenId",
          "type": "uint256"
        }
      ],
      "name": "approve",
      "outputs": [],
      "stateMutability": "nonpayable",
      "type": "function"
    },
    {
      "inputs": [
        {
          "internalType": "address",
          "name": "owner",
          "type": "address"
        }
      ],
      "name": "balanceOf",
      "outputs": [
        {
          "internalType": "uint256",
          "name": "",
          "type": "uint256"
        }
      ],
      "stateMutability": "view",
      "type": "function",
      "constant": true
    },
    {
      "inputs": [],
      "name": "baseTokenURI",
      "outputs": [
        {
          "internalType": "string",
          "name": "",
          "type": "string"
        }
      ],
      "stateMutability": "view",
      "type": "function",
      "constant": true
    },
    {
      "inputs": [
        {
          "internalType": "uint256",
          "name": "tokenId",
          "type": "uint256"
        }
      ],
      "name": "getApproved",
      "outputs": [
        {
          "internalType": "address",
          "name": "",
          "type": "address"
        }
      ],
      "stateMutability": "view",
      "type": "function",
      "constant": true
    },
    {
      "inputs": [
        {
          "internalType": "address",
          "name": "owner",
          "type": "address"
        },
        {
          "internalType": "address",
          "name": "operator",
          "type": "address"
        }
      ],
      "name": "isApprovedForAll",
      "outputs": [
        {
          "internalType": "bool",
          "name": "",
          "type": "bool"
        }
      ],
      "stateMutability": "view",
      "type": "function",
      "constant": true
    },
    {
      "inputs": [],
      "name": "name",
      "outputs": [
        {
          "internalType": "string",
          "name": "",
          "type": "string"
        }
      ],
      "stateMutability": "view",
      "type": "function",
      "constant": true
    },
    {
      "inputs": [],
      "name": "owner",
      "outputs": [
        {
          "internalType": "address",
          "name": "",
          "type": "address"
        }
      ],
      "stateMutability": "view",
      "type": "function",
      "constant": true
    },
    {
      "inputs": [
        {
          "internalType": "uint256",
          "name": "tokenId",
          "type": "uint256"
        }
      ],
      "name": "ownerOf",
      "outputs": [
        {
          "internalType": "address",
          "name": "",
          "type": "address"
        }
      ],
      "stateMutability": "view",
      "type": "function",
      "constant": true
    },
    {
      "inputs": [],
      "name": "renounceOwnership",
      "outputs": [],
      "stateMutability": "nonpayable",
      "type": "function"
    },
    {
      "inputs": [
        {
          "internalType": "address",
          "name": "from",
          "type": "address"
        },
        {
          "internalType": "address",
          "name": "to",
          "type": "address"
        },
        {
          "internalType": "uint256",
          "name": "tokenId",
          "type": "uint256"
        }
      ],
      "name": "safeTransferFrom",
      "outputs": [],
      "stateMutability": "nonpayable",
      "type": "function"
    },
    {
      "inputs": [
        {
          "internalType": "address",
          "name": "from",
          "type": "address"
        },
        {
          "internalType": "address",
          "name": "to",
          "type": "address"
        },
        {
          "internalType": "uint256",
          "name": "tokenId",
          "type": "uint256"
        },
        {
          "internalType": "bytes",
          "name": "_data",
          "type": "bytes"
        }
      ],
      "name": "safeTransferFrom",
      "outputs": [],
      "stateMutability": "nonpayable",
      "type": "function"
    },
    {
      "inputs": [
        {
          "internalType": "address",
          "name": "operator",
          "type": "address"
        },
        {
          "internalType": "bool",
          "name": "approved",
          "type": "bool"
        }
      ],
      "name": "setApprovalForAll",
      "outputs": [],
      "stateMutability": "nonpayable",
      "type": "function"
    },
    {
      "inputs": [
        {
          "internalType": "bytes4",
          "name": "interfaceId",
          "type": "bytes4"
        }
      ],
      "name": "supportsInterface",
      "outputs": [
        {
          "internalType": "bool",
          "name": "",
          "type": "bool"
        }
      ],
      "stateMutability": "view",
      "type": "function",
      "constant": true
    },
    {
      "inputs": [],
      "name": "symbol",
      "outputs": [
        {
          "internalType": "string",
          "name": "",
          "type": "string"
        }
      ],
      "stateMutability": "view",
      "type": "function",
      "constant": true
    },
    {
      "inputs": [
        {
          "internalType": "uint256",
          "name": "index",
          "type": "uint256"
        }
      ],
      "name": "tokenByIndex",
      "outputs": [
        {
          "internalType": "uint256",
          "name": "",
          "type": "uint256"
        }
      ],
      "stateMutability": "view",
      "type": "function",
      "constant": true
    },
    {
      "inputs": [
        {
          "internalType": "address",
          "name": "owner",
          "type": "address"
        },
        {
          "internalType": "uint256",
          "name": "index",
          "type": "uint256"
        }
      ],
      "name": "tokenOfOwnerByIndex",
      "outputs": [
        {
          "internalType": "uint256",
          "name": "",
          "type": "uint256"
        }
      ],
      "stateMutability": "view",
      "type": "function",
      "constant": true
    },
    {
      "inputs": [
        {
          "internalType": "uint256",
          "name": "tokenId",
          "type": "uint256"
        }
      ],
      "name": "tokenURI",
      "outputs": [
        {
          "internalType": "string",
          "name": "",
          "type": "string"
        }
      ],
      "stateMutability": "view",
      "type": "function",
      "constant": true
    },
    {
      "inputs": [],
      "name": "totalSupply",
      "outputs": [
        {
          "internalType": "uint256",
          "name": "",
          "type": "uint256"
        }
      ],
      "stateMutability": "view",
      "type": "function",
      "constant": true
    },
    {
      "inputs": [
        {
          "internalType": "address",
          "name": "from",
          "type": "address"
        },
        {
          "internalType": "address",
          "name": "to",
          "type": "address"
        },
        {
          "internalType": "uint256",
          "name": "tokenId",
          "type": "uint256"
        }
      ],
      "name": "transferFrom",
      "outputs": [],
      "stateMutability": "nonpayable",
      "type": "function"
    },
    {
      "inputs": [
        {
          "internalType": "address",
          "name": "newOwner",
          "type": "address"
        }
      ],
      "name": "transferOwnership",
      "outputs": [],
      "stateMutability": "nonpayable",
      "type": "function"
    },
    {
      "inputs": [
        {
          "internalType": "string",
          "name": "_baseTokenURI",
          "type": "string"
        }
      ],
      "name": "setBaseURI",
      "outputs": [],
      "stateMutability": "nonpayable",
      "type": "function"
    },
    {
      "inputs": [
        {
          "internalType": "uint256",
          "name": "_count",
          "type": "uint256"
        }
      ],
      "name": "mintNFTs",
      "outputs": [],
      "stateMutability": "payable",
      "type": "function",
      "payable": true
    },
    {
      "inputs": [
        {
          "internalType": "address",
          "name": "_owner",
          "type": "address"
        }
      ],
      "name": "tokensOfOwner",
      "outputs": [
        {
          "internalType": "uint256[]",
          "name": "",
          "type": "uint256[]"
        }
      ],
      "stateMutability": "view",
      "type": "function",
      "constant": true
    },
    {
      "inputs": [],
      "name": "withdraw",
      "outputs": [],
      "stateMutability": "payable",
      "type": "function",
      "payable": true
    },
    {
      "inputs": [
        {
          "internalType": "uint256",
          "name": "_count",
          "type": "uint256"
        }
      ],
      "name": "reserveNFTs",
      "outputs": [],
      "stateMutability": "nonpayable",
      "type": "function"
    }
  ],
  "bytecode": "0x60806040523480156200001157600080fd5b506040516200482d3803806200482d833981810160405281019062000037919062000497565b81818160009080519060200190620000519291906200024a565b5080600190805190602001906200006a9291906200024a565b5050506200008d62000081620000a760201b60201c565b620000af60201b60201c565b6200009e836200017560201b60201c565b50505062000637565b600033905090565b6000600a60009054906101000a900473ffffffffffffffffffffffffffffffffffffffff16905081600a60006101000a81548173ffffffffffffffffffffffffffffffffffffffff021916908373ffffffffffffffffffffffffffffffffffffffff1602179055508173ffffffffffffffffffffffffffffffffffffffff168173ffffffffffffffffffffffffffffffffffffffff167f8be0079c531659141344cd1fd0a4f28419497f9722a3daafe3b4186f6b6457e060405160405180910390a35050565b62000185620000a760201b60201c565b73ffffffffffffffffffffffffffffffffffffffff16620001ab6200022060201b60201c565b73ffffffffffffffffffffffffffffffffffffffff161462000204576040517f08c379a0000000000000000000000000000000000000000000000000000000008152600401620001fb90620005b1565b60405180910390fd5b80600c90805190602001906200021c9291906200024a565b5050565b6000600a60009054906101000a900473ffffffffffffffffffffffffffffffffffffffff16905090565b828054620002589062000602565b90600052602060002090601f0160209004810192826200027c5760008555620002c8565b82601f106200029757805160ff1916838001178555620002c8565b82800160010185558215620002c8579182015b82811115620002c7578251825591602001919060010190620002aa565b5b509050620002d79190620002db565b5090565b5b80821115620002f6576000816000905550600101620002dc565b5090565b6000604051905090565b600080fd5b600080fd5b600080fd5b600080fd5b6000601f19601f8301169050919050565b7f4e487b7100000000000000000000000000000000000000000000000000000000600052604160045260246000fd5b620003638262000318565b810181811067ffffffffffffffff8211171562000385576200038462000329565b5b80604052505050565b60006200039a620002fa565b9050620003a8828262000358565b919050565b600067ffffffffffffffff821115620003cb57620003ca62000329565b5b620003d68262000318565b9050602081019050919050565b60005b8381101562000403578082015181840152602081019050620003e6565b8381111562000413576000848401525b50505050565b6000620004306200042a84620003ad565b6200038e565b9050828152602081018484840111156200044f576200044e62000313565b5b6200045c848285620003e3565b509392505050565b600082601f8301126200047c576200047b6200030e565b5b81516200048e84826020860162000419565b91505092915050565b600080600060608486031215620004b357620004b262000304565b5b600084015167ffffffffffffffff811115620004d457620004d362000309565b5b620004e28682870162000464565b935050602084015167ffffffffffffffff81111562000506576200050562000309565b5b620005148682870162000464565b925050604084015167ffffffffffffffff81111562000538576200053762000309565b5b620005468682870162000464565b9150509250925092565b600082825260208201905092915050565b7f4f776e61626c653a2063616c6c6572206973206e6f7420746865206f776e6572600082015250565b60006200059960208362000550565b9150620005a68262000561565b602082019050919050565b60006020820190508181036000830152620005cc816200058a565b9050919050565b7f4e487b7100000000000000000000000000000000000000000000000000000000600052602260045260246000fd5b600060028204905060018216806200061b57607f821691505b602082108103620006315762000630620005d3565b5b50919050565b6141e680620006476000396000f3fe6080604052600436106101b75760003560e01c80636352211e116100ec578063a22cb4651161008a578063c87b56dd11610064578063c87b56dd146105f0578063d547cfb71461062d578063e985e9c514610658578063f2fde38b14610695576101b7565b8063a22cb46514610575578063b88d4fde1461059e578063bc7df091146105c7576101b7565b80638462151c116100c65780638462151c146104b75780638d859f3e146104f45780638da5cb5b1461051f57806395d89b411461054a576101b7565b80636352211e1461042657806370a0823114610463578063715018a6146104a0576101b7565b80632f745c59116101595780633ccfd60b116101335780633ccfd60b1461038d57806342842e0e146103975780634f6ccce7146103c057806355f804b3146103fd576101b7565b80632f745c591461030957806332cb6b0c146103465780633b4b138114610371576101b7565b8063095ea7b311610195578063095ea7b31461026157806309d42b301461028a57806318160ddd146102b557806323b872dd146102e0576101b7565b806301ffc9a7146101bc57806306fdde03146101f9578063081812fc14610224575b600080fd5b3480156101c857600080fd5b506101e360048036038101906101de91906129dc565b6106be565b6040516101f09190612a24565b60405180910390f35b34801561020557600080fd5b5061020e610738565b60405161021b9190612ad8565b60405180910390f35b34801561023057600080fd5b5061024b60048036038101906102469190612b30565b6107ca565b6040516102589190612b9e565b60405180910390f35b34801561026d57600080fd5b5061028860048036038101906102839190612be5565b61084f565b005b34801561029657600080fd5b5061029f610966565b6040516102ac9190612c34565b60405180910390f35b3480156102c157600080fd5b506102ca61096b565b6040516102d79190612c34565b60405180910390f35b3480156102ec57600080fd5b5061030760048036038101906103029190612c4f565b610978565b005b34801561031557600080fd5b50610330600480360381019061032b9190612be5565b6109d8565b60405161033d9190612c34565b60405180910390f35b34801561035257600080fd5b5061035b610a7d565b6040516103689190612c34565b60405180910390f35b61038b60048036038101906103869190612b30565b610a82565b005b610395610bbc565b005b3480156103a357600080fd5b506103be60048036038101906103b99190612c4f565b610d30565b005b3480156103cc57600080fd5b506103e760048036038101906103e29190612b30565b610d50565b6040516103f49190612c34565b60405180910390f35b34801561040957600080fd5b50610424600480360381019061041f9190612dd7565b610dc1565b005b34801561043257600080fd5b5061044d60048036038101906104489190612b30565b610e57565b60405161045a9190612b9e565b60405180910390f35b34801561046f57600080fd5b5061048a60048036038101906104859190612e20565b610f08565b6040516104979190612c34565b60405180910390f35b3480156104ac57600080fd5b506104b5610fbf565b005b3480156104c357600080fd5b506104de60048036038101906104d99190612e20565b611047565b6040516104eb9190612f0b565b60405180910390f35b34801561050057600080fd5b506105096110f5565b6040516105169190612c34565b60405180910390f35b34801561052b57600080fd5b506105346110ff565b6040516105419190612b9e565b60405180910390f35b34801561055657600080fd5b5061055f611129565b60405161056c9190612ad8565b60405180910390f35b34801561058157600080fd5b5061059c60048036038101906105979190612f59565b6111bb565b005b3480156105aa57600080fd5b506105c560048036038101906105c0919061303a565b6111d1565b005b3480156105d357600080fd5b506105ee60048036038101906105e99190612b30565b611233565b005b3480156105fc57600080fd5b5061061760048036038101906106129190612b30565b61133d565b6040516106249190612ad8565b60405180910390f35b34801561063957600080fd5b506106426113e4565b60405161064f9190612ad8565b60405180910390f35b34801561066457600080fd5b5061067f600480360381019061067a91906130bd565b611472565b60405161068c9190612a24565b60405180910390f35b3480156106a157600080fd5b506106bc60048036038101906106b79190612e20565b611506565b005b60007f780e9d63000000000000000000000000000000000000000000000000000000007bffffffffffffffffffffffffffffffffffffffffffffffffffffffff1916827bffffffffffffffffffffffffffffffffffffffffffffffffffffffff191614806107315750610730826115fd565b5b9050919050565b6060600080546107479061312c565b80601f01602080910402602001604051908101604052809291908181526020018280546107739061312c565b80156107c05780601f10610795576101008083540402835291602001916107c0565b820191906000526020600020905b8154815290600101906020018083116107a357829003601f168201915b5050505050905090565b60006107d5826116df565b610814576040517f08c379a000000000000000000000000000000000000000000000000000000000815260040161080b906131cf565b60405180910390fd5b6004600083815260200190815260200160002060009054906101000a900473ffffffffffffffffffffffffffffffffffffffff169050919050565b600061085a82610e57565b90508073ffffffffffffffffffffffffffffffffffffffff168373ffffffffffffffffffffffffffffffffffffffff16036108ca576040517f08c379a00000000000000000000000000000000000000000000000000000000081526004016108c190613261565b60405180910390fd5b8073ffffffffffffffffffffffffffffffffffffffff166108e961174b565b73ffffffffffffffffffffffffffffffffffffffff16148061091857506109178161091261174b565b611472565b5b610957576040517f08c379a000000000000000000000000000000000000000000000000000000000815260040161094e906132f3565b60405180910390fd5b6109618383611753565b505050565b600581565b6000600880549050905090565b61098961098361174b565b8261180c565b6109c8576040517f08c379a00000000000000000000000000000000000000000000000000000000081526004016109bf90613385565b60405180910390fd5b6109d38383836118ea565b505050565b60006109e383610f08565b8210610a24576040517f08c379a0000000000000000000000000000000000000000000000000000000008152600401610a1b90613417565b60405180910390fd5b600660008473ffffffffffffffffffffffffffffffffffffffff1673ffffffffffffffffffffffffffffffffffffffff168152602001908152602001600020600083815260200190815260200160002054905092915050565b600a81565b6000610a8e600b611b50565b9050600a610aa58383611b5e90919063ffffffff16565b1115610ae6576040517f08c379a0000000000000000000000000000000000000000000000000000000008152600401610add90613483565b60405180910390fd5b600082118015610af7575060058211155b610b36576040517f08c379a0000000000000000000000000000000000000000000000000000000008152600401610b2d90613515565b60405180910390fd5b610b4f826509184e72a000611b7490919063ffffffff16565b341015610b91576040517f08c379a0000000000000000000000000000000000000000000000000000000008152600401610b88906135a7565b60405180910390fd5b60005b82811015610bb757610ba4611b8a565b8080610baf906135f6565b915050610b94565b505050565b610bc461174b565b73ffffffffffffffffffffffffffffffffffffffff16610be26110ff565b73ffffffffffffffffffffffffffffffffffffffff1614610c38576040517f08c379a0000000000000000000000000000000000000000000000000000000008152600401610c2f9061368a565b60405180910390fd5b600047905060008111610c80576040517f08c379a0000000000000000000000000000000000000000000000000000000008152600401610c77906136f6565b60405180910390fd5b60003373ffffffffffffffffffffffffffffffffffffffff1682604051610ca690613747565b60006040518083038185875af1925050503d8060008114610ce3576040519150601f19603f3d011682016040523d82523d6000602084013e610ce8565b606091505b5050905080610d2c576040517f08c379a0000000000000000000000000000000000000000000000000000000008152600401610d23906137a8565b60405180910390fd5b5050565b610d4b838383604051806020016040528060008152506111d1565b505050565b6000610d5a61096b565b8210610d9b576040517f08c379a0000000000000000000000000000000000000000000000000000000008152600401610d929061383a565b60405180910390fd5b60088281548110610daf57610dae61385a565b5b90600052602060002001549050919050565b610dc961174b565b73ffffffffffffffffffffffffffffffffffffffff16610de76110ff565b73ffffffffffffffffffffffffffffffffffffffff1614610e3d576040517f08c379a0000000000000000000000000000000000000000000000000000000008152600401610e349061368a565b60405180910390fd5b80600c9080519060200190610e539291906128cd565b5050565b6000806002600084815260200190815260200160002060009054906101000a900473ffffffffffffffffffffffffffffffffffffffff169050600073ffffffffffffffffffffffffffffffffffffffff168173ffffffffffffffffffffffffffffffffffffffff1603610eff576040517f08c379a0000000000000000000000000000000000000000000000000000000008152600401610ef6906138fb565b60405180910390fd5b80915050919050565b60008073ffffffffffffffffffffffffffffffffffffffff168273ffffffffffffffffffffffffffffffffffffffff1603610f78576040517f08c379a0000000000000000000000000000000000000000000000000000000008152600401610f6f9061398d565b60405180910390fd5b600360008373ffffffffffffffffffffffffffffffffffffffff1673ffffffffffffffffffffffffffffffffffffffff168152602001908152602001600020549050919050565b610fc761174b565b73ffffffffffffffffffffffffffffffffffffffff16610fe56110ff565b73ffffffffffffffffffffffffffffffffffffffff161461103b576040517f08c379a00000000000000000000000000000000000000000000000000000000081526004016110329061368a565b60405180910390fd5b6110456000611baf565b565b6060600061105483610f08565b905060008167ffffffffffffffff81111561107257611071612cac565b5b6040519080825280602002602001820160405280156110a05781602001602082028036833780820191505090505b50905060005b828110156110ea576110b885826109d8565b8282815181106110cb576110ca61385a565b5b60200260200101818152505080806110e2906135f6565b9150506110a6565b508092505050919050565b6509184e72a00081565b6000600a60009054906101000a900473ffffffffffffffffffffffffffffffffffffffff16905090565b6060600180546111389061312c565b80601f01602080910402602001604051908101604052809291908181526020018280546111649061312c565b80156111b15780601f10611186576101008083540402835291602001916111b1565b820191906000526020600020905b81548152906001019060200180831161119457829003601f168201915b5050505050905090565b6111cd6111c661174b565b8383611c75565b5050565b6111e26111dc61174b565b8361180c565b611221576040517f08c379a000000000000000000000000000000000000000000000000000000000815260040161121890613385565b60405180910390fd5b61122d84848484611de1565b50505050565b61123b61174b565b73ffffffffffffffffffffffffffffffffffffffff166112596110ff565b73ffffffffffffffffffffffffffffffffffffffff16146112af576040517f08c379a00000000000000000000000000000000000000000000000000000000081526004016112a69061368a565b60405180910390fd5b60006112bb600b611b50565b9050600a6112d28383611b5e90919063ffffffff16565b10611312576040517f08c379a0000000000000000000000000000000000000000000000000000000008152600401611309906139f9565b60405180910390fd5b60005b8281101561133857611325611b8a565b8080611330906135f6565b915050611315565b505050565b6060611348826116df565b611387576040517f08c379a000000000000000000000000000000000000000000000000000000000815260040161137e90613a8b565b60405180910390fd5b6000611391611e3d565b905060008151116113b157604051806020016040528060008152506113dc565b806113bb84611ecf565b6040516020016113cc929190613ae7565b6040516020818303038152906040525b915050919050565b600c80546113f19061312c565b80601f016020809104026020016040519081016040528092919081815260200182805461141d9061312c565b801561146a5780601f1061143f5761010080835404028352916020019161146a565b820191906000526020600020905b81548152906001019060200180831161144d57829003601f168201915b505050505081565b6000600560008473ffffffffffffffffffffffffffffffffffffffff1673ffffffffffffffffffffffffffffffffffffffff16815260200190815260200160002060008373ffffffffffffffffffffffffffffffffffffffff1673ffffffffffffffffffffffffffffffffffffffff16815260200190815260200160002060009054906101000a900460ff16905092915050565b61150e61174b565b73ffffffffffffffffffffffffffffffffffffffff1661152c6110ff565b73ffffffffffffffffffffffffffffffffffffffff1614611582576040517f08c379a00000000000000000000000000000000000000000000000000000000081526004016115799061368a565b60405180910390fd5b600073ffffffffffffffffffffffffffffffffffffffff168173ffffffffffffffffffffffffffffffffffffffff16036115f1576040517f08c379a00000000000000000000000000000000000000000000000000000000081526004016115e890613b7d565b60405180910390fd5b6115fa81611baf565b50565b60007f80ac58cd000000000000000000000000000000000000000000000000000000007bffffffffffffffffffffffffffffffffffffffffffffffffffffffff1916827bffffffffffffffffffffffffffffffffffffffffffffffffffffffff191614806116c857507f5b5e139f000000000000000000000000000000000000000000000000000000007bffffffffffffffffffffffffffffffffffffffffffffffffffffffff1916827bffffffffffffffffffffffffffffffffffffffffffffffffffffffff1916145b806116d857506116d78261202f565b5b9050919050565b60008073ffffffffffffffffffffffffffffffffffffffff166002600084815260200190815260200160002060009054906101000a900473ffffffffffffffffffffffffffffffffffffffff1673ffffffffffffffffffffffffffffffffffffffff1614159050919050565b600033905090565b816004600083815260200190815260200160002060006101000a81548173ffffffffffffffffffffffffffffffffffffffff021916908373ffffffffffffffffffffffffffffffffffffffff160217905550808273ffffffffffffffffffffffffffffffffffffffff166117c683610e57565b73ffffffffffffffffffffffffffffffffffffffff167f8c5be1e5ebec7d5bd14f71427d1e84f3dd0314c0f7b2291e5b200ac8c7c3b92560405160405180910390a45050565b6000611817826116df565b611856576040517f08c379a000000000000000000000000000000000000000000000000000000000815260040161184d90613c0f565b60405180910390fd5b600061186183610e57565b90508073ffffffffffffffffffffffffffffffffffffffff168473ffffffffffffffffffffffffffffffffffffffff1614806118a357506118a28185611472565b5b806118e157508373ffffffffffffffffffffffffffffffffffffffff166118c9846107ca565b73ffffffffffffffffffffffffffffffffffffffff16145b91505092915050565b8273ffffffffffffffffffffffffffffffffffffffff1661190a82610e57565b73ffffffffffffffffffffffffffffffffffffffff1614611960576040517f08c379a000000000000000000000000000000000000000000000000000000000815260040161195790613ca1565b60405180910390fd5b600073ffffffffffffffffffffffffffffffffffffffff168273ffffffffffffffffffffffffffffffffffffffff16036119cf576040517f08c379a00000000000000000000000000000000000000000000000000000000081526004016119c690613d33565b60405180910390fd5b6119da838383612099565b6119e5600082611753565b6001600360008573ffffffffffffffffffffffffffffffffffffffff1673ffffffffffffffffffffffffffffffffffffffff1681526020019081526020016000206000828254611a359190613d53565b925050819055506001600360008473ffffffffffffffffffffffffffffffffffffffff1673ffffffffffffffffffffffffffffffffffffffff1681526020019081526020016000206000828254611a8c9190613d87565b92505081905550816002600083815260200190815260200160002060006101000a81548173ffffffffffffffffffffffffffffffffffffffff021916908373ffffffffffffffffffffffffffffffffffffffff160217905550808273ffffffffffffffffffffffffffffffffffffffff168473ffffffffffffffffffffffffffffffffffffffff167fddf252ad1be2c89b69c2b068fc378daa952ba7f163c4a11628f55a4df523b3ef60405160405180910390a4611b4b8383836121ab565b505050565b600081600001549050919050565b60008183611b6c9190613d87565b905092915050565b60008183611b829190613ddd565b905092915050565b6000611b96600b611b50565b9050611ba233826121b0565b611bac600b6121ce565b50565b6000600a60009054906101000a900473ffffffffffffffffffffffffffffffffffffffff16905081600a60006101000a81548173ffffffffffffffffffffffffffffffffffffffff021916908373ffffffffffffffffffffffffffffffffffffffff1602179055508173ffffffffffffffffffffffffffffffffffffffff168173ffffffffffffffffffffffffffffffffffffffff167f8be0079c531659141344cd1fd0a4f28419497f9722a3daafe3b4186f6b6457e060405160405180910390a35050565b8173ffffffffffffffffffffffffffffffffffffffff168373ffffffffffffffffffffffffffffffffffffffff1603611ce3576040517f08c379a0000000000000000000000000000000000000000000000000000000008152600401611cda90613e83565b60405180910390fd5b80600560008573ffffffffffffffffffffffffffffffffffffffff1673ffffffffffffffffffffffffffffffffffffffff16815260200190815260200160002060008473ffffffffffffffffffffffffffffffffffffffff1673ffffffffffffffffffffffffffffffffffffffff16815260200190815260200160002060006101000a81548160ff0219169083151502179055508173ffffffffffffffffffffffffffffffffffffffff168373ffffffffffffffffffffffffffffffffffffffff167f17307eab39ab6107e8899845ad3d59bd9653f200f220920489ca2b5937696c3183604051611dd49190612a24565b60405180910390a3505050565b611dec8484846118ea565b611df8848484846121e4565b611e37576040517f08c379a0000000000000000000000000000000000000000000000000000000008152600401611e2e90613f15565b60405180910390fd5b50505050565b6060600c8054611e4c9061312c565b80601f0160208091040260200160405190810160405280929190818152602001828054611e789061312c565b8015611ec55780601f10611e9a57610100808354040283529160200191611ec5565b820191906000526020600020905b815481529060010190602001808311611ea857829003601f168201915b5050505050905090565b606060008203611f16576040518060400160405280600181526020017f3000000000000000000000000000000000000000000000000000000000000000815250905061202a565b600082905060005b60008214611f48578080611f31906135f6565b915050600a82611f419190613f64565b9150611f1e565b60008167ffffffffffffffff811115611f6457611f63612cac565b5b6040519080825280601f01601f191660200182016040528015611f965781602001600182028036833780820191505090505b5090505b6000851461202357600182611faf9190613d53565b9150600a85611fbe9190613f95565b6030611fca9190613d87565b60f81b818381518110611fe057611fdf61385a565b5b60200101907effffffffffffffffffffffffffffffffffffffffffffffffffffffffffffff1916908160001a905350600a8561201c9190613f64565b9450611f9a565b8093505050505b919050565b60007f01ffc9a7000000000000000000000000000000000000000000000000000000007bffffffffffffffffffffffffffffffffffffffffffffffffffffffff1916827bffffffffffffffffffffffffffffffffffffffffffffffffffffffff1916149050919050565b6120a483838361236b565b600073ffffffffffffffffffffffffffffffffffffffff168373ffffffffffffffffffffffffffffffffffffffff16036120e6576120e181612370565b612125565b8173ffffffffffffffffffffffffffffffffffffffff168373ffffffffffffffffffffffffffffffffffffffff16146121245761212383826123b9565b5b5b600073ffffffffffffffffffffffffffffffffffffffff168273ffffffffffffffffffffffffffffffffffffffff16036121675761216281612526565b6121a6565b8273ffffffffffffffffffffffffffffffffffffffff168273ffffffffffffffffffffffffffffffffffffffff16146121a5576121a482826125f7565b5b5b505050565b505050565b6121ca828260405180602001604052806000815250612676565b5050565b6001816000016000828254019250508190555050565b60006122058473ffffffffffffffffffffffffffffffffffffffff166126d1565b1561235e578373ffffffffffffffffffffffffffffffffffffffff1663150b7a0261222e61174b565b8786866040518563ffffffff1660e01b8152600401612250949392919061401b565b6020604051808303816000875af192505050801561228c57506040513d601f19601f82011682018060405250810190612289919061407c565b60015b61230e573d80600081146122bc576040519150601f19603f3d011682016040523d82523d6000602084013e6122c1565b606091505b506000815103612306576040517f08c379a00000000000000000000000000000000000000000000000000000000081526004016122fd90613f15565b60405180910390fd5b805181602001fd5b63150b7a0260e01b7bffffffffffffffffffffffffffffffffffffffffffffffffffffffff1916817bffffffffffffffffffffffffffffffffffffffffffffffffffffffff191614915050612363565b600190505b949350505050565b505050565b6008805490506009600083815260200190815260200160002081905550600881908060018154018082558091505060019003906000526020600020016000909190919091505550565b600060016123c684610f08565b6123d09190613d53565b90506000600760008481526020019081526020016000205490508181146124b5576000600660008673ffffffffffffffffffffffffffffffffffffffff1673ffffffffffffffffffffffffffffffffffffffff168152602001908152602001600020600084815260200190815260200160002054905080600660008773ffffffffffffffffffffffffffffffffffffffff1673ffffffffffffffffffffffffffffffffffffffff168152602001908152602001600020600084815260200190815260200160002081905550816007600083815260200190815260200160002081905550505b6007600084815260200190815260200160002060009055600660008573ffffffffffffffffffffffffffffffffffffffff1673ffffffffffffffffffffffffffffffffffffffff16815260200190815260200160002060008381526020019081526020016000206000905550505050565b6000600160088054905061253a9190613d53565b905060006009600084815260200190815260200160002054905060006008838154811061256a5761256961385a565b5b90600052602060002001549050806008838154811061258c5761258b61385a565b5b9060005260206000200181905550816009600083815260200190815260200160002081905550600960008581526020019081526020016000206000905560088054806125db576125da6140a9565b5b6001900381819060005260206000200160009055905550505050565b600061260283610f08565b905081600660008573ffffffffffffffffffffffffffffffffffffffff1673ffffffffffffffffffffffffffffffffffffffff168152602001908152602001600020600083815260200190815260200160002081905550806007600084815260200190815260200160002081905550505050565b61268083836126f4565b61268d60008484846121e4565b6126cc576040517f08c379a00000000000000000000000000000000000000000000000000000000081526004016126c390613f15565b60405180910390fd5b505050565b6000808273ffffffffffffffffffffffffffffffffffffffff163b119050919050565b600073ffffffffffffffffffffffffffffffffffffffff168273ffffffffffffffffffffffffffffffffffffffff1603612763576040517f08c379a000000000000000000000000000000000000000000000000000000000815260040161275a90614124565b60405180910390fd5b61276c816116df565b156127ac576040517f08c379a00000000000000000000000000000000000000000000000000000000081526004016127a390614190565b60405180910390fd5b6127b860008383612099565b6001600360008473ffffffffffffffffffffffffffffffffffffffff1673ffffffffffffffffffffffffffffffffffffffff16815260200190815260200160002060008282546128089190613d87565b92505081905550816002600083815260200190815260200160002060006101000a81548173ffffffffffffffffffffffffffffffffffffffff021916908373ffffffffffffffffffffffffffffffffffffffff160217905550808273ffffffffffffffffffffffffffffffffffffffff16600073ffffffffffffffffffffffffffffffffffffffff167fddf252ad1be2c89b69c2b068fc378daa952ba7f163c4a11628f55a4df523b3ef60405160405180910390a46128c9600083836121ab565b5050565b8280546128d99061312c565b90600052602060002090601f0160209004810192826128fb5760008555612942565b82601f1061291457805160ff1916838001178555612942565b82800160010185558215612942579182015b82811115612941578251825591602001919060010190612926565b5b50905061294f9190612953565b5090565b5b8082111561296c576000816000905550600101612954565b5090565b6000604051905090565b600080fd5b600080fd5b60007fffffffff0000000000000000000000000000000000000000000000000000000082169050919050565b6129b981612984565b81146129c457600080fd5b50565b6000813590506129d6816129b0565b92915050565b6000602082840312156129f2576129f161297a565b5b6000612a00848285016129c7565b91505092915050565b60008115159050919050565b612a1e81612a09565b82525050565b6000602082019050612a396000830184612a15565b92915050565b600081519050919050565b600082825260208201905092915050565b60005b83811015612a79578082015181840152602081019050612a5e565b83811115612a88576000848401525b50505050565b6000601f19601f8301169050919050565b6000612aaa82612a3f565b612ab48185612a4a565b9350612ac4818560208601612a5b565b612acd81612a8e565b840191505092915050565b60006020820190508181036000830152612af28184612a9f565b905092915050565b6000819050919050565b612b0d81612afa565b8114612b1857600080fd5b50565b600081359050612b2a81612b04565b92915050565b600060208284031215612b4657612b4561297a565b5b6000612b5484828501612b1b565b91505092915050565b600073ffffffffffffffffffffffffffffffffffffffff82169050919050565b6000612b8882612b5d565b9050919050565b612b9881612b7d565b82525050565b6000602082019050612bb36000830184612b8f565b92915050565b612bc281612b7d565b8114612bcd57600080fd5b50565b600081359050612bdf81612bb9565b92915050565b60008060408385031215612bfc57612bfb61297a565b5b6000612c0a85828601612bd0565b9250506020612c1b85828601612b1b565b9150509250929050565b612c2e81612afa565b82525050565b6000602082019050612c496000830184612c25565b92915050565b600080600060608486031215612c6857612c6761297a565b5b6000612c7686828701612bd0565b9350506020612c8786828701612bd0565b9250506040612c9886828701612b1b565b9150509250925092565b600080fd5b600080fd5b7f4e487b7100000000000000000000000000000000000000000000000000000000600052604160045260246000fd5b612ce482612a8e565b810181811067ffffffffffffffff82111715612d0357612d02612cac565b5b80604052505050565b6000612d16612970565b9050612d228282612cdb565b919050565b600067ffffffffffffffff821115612d4257612d41612cac565b5b612d4b82612a8e565b9050602081019050919050565b82818337600083830152505050565b6000612d7a612d7584612d27565b612d0c565b905082815260208101848484011115612d9657612d95612ca7565b5b612da1848285612d58565b509392505050565b600082601f830112612dbe57612dbd612ca2565b5b8135612dce848260208601612d67565b91505092915050565b600060208284031215612ded57612dec61297a565b5b600082013567ffffffffffffffff811115612e0b57612e0a61297f565b5b612e1784828501612da9565b91505092915050565b600060208284031215612e3657612e3561297a565b5b6000612e4484828501612bd0565b91505092915050565b600081519050919050565b600082825260208201905092915050565b6000819050602082019050919050565b612e8281612afa565b82525050565b6000612e948383612e79565b60208301905092915050565b6000602082019050919050565b6000612eb882612e4d565b612ec28185612e58565b9350612ecd83612e69565b8060005b83811015612efe578151612ee58882612e88565b9750612ef083612ea0565b925050600181019050612ed1565b5085935050505092915050565b60006020820190508181036000830152612f258184612ead565b905092915050565b612f3681612a09565b8114612f4157600080fd5b50565b600081359050612f5381612f2d565b92915050565b60008060408385031215612f7057612f6f61297a565b5b6000612f7e85828601612bd0565b9250506020612f8f85828601612f44565b9150509250929050565b600067ffffffffffffffff821115612fb457612fb3612cac565b5b612fbd82612a8e565b9050602081019050919050565b6000612fdd612fd884612f99565b612d0c565b905082815260208101848484011115612ff957612ff8612ca7565b5b613004848285612d58565b509392505050565b600082601f83011261302157613020612ca2565b5b8135613031848260208601612fca565b91505092915050565b600080600080608085870312156130545761305361297a565b5b600061306287828801612bd0565b945050602061307387828801612bd0565b935050604061308487828801612b1b565b925050606085013567ffffffffffffffff8111156130a5576130a461297f565b5b6130b18782880161300c565b91505092959194509250565b600080604083850312156130d4576130d361297a565b5b60006130e285828601612bd0565b92505060206130f385828601612bd0565b9150509250929050565b7f4e487b7100000000000000000000000000000000000000000000000000000000600052602260045260246000fd5b6000600282049050600182168061314457607f821691505b602082108103613157576131566130fd565b5b50919050565b7f4552433732313a20617070726f76656420717565727920666f72206e6f6e657860008201527f697374656e7420746f6b656e0000000000000000000000000000000000000000602082015250565b60006131b9602c83612a4a565b91506131c48261315d565b604082019050919050565b600060208201905081810360008301526131e8816131ac565b9050919050565b7f4552433732313a20617070726f76616c20746f2063757272656e74206f776e6560008201527f7200000000000000000000000000000000000000000000000000000000000000602082015250565b600061324b602183612a4a565b9150613256826131ef565b604082019050919050565b6000602082019050818103600083015261327a8161323e565b9050919050565b7f4552433732313a20617070726f76652063616c6c6572206973206e6f74206f7760008201527f6e6572206e6f7220617070726f76656420666f7220616c6c0000000000000000602082015250565b60006132dd603883612a4a565b91506132e882613281565b604082019050919050565b6000602082019050818103600083015261330c816132d0565b9050919050565b7f4552433732313a207472616e736665722063616c6c6572206973206e6f74206f60008201527f776e6572206e6f7220617070726f766564000000000000000000000000000000602082015250565b600061336f603183612a4a565b915061337a82613313565b604082019050919050565b6000602082019050818103600083015261339e81613362565b9050919050565b7f455243373231456e756d657261626c653a206f776e657220696e646578206f7560008201527f74206f6620626f756e6473000000000000000000000000000000000000000000602082015250565b6000613401602b83612a4a565b915061340c826133a5565b604082019050919050565b60006020820190508181036000830152613430816133f4565b9050919050565b7f5468697320636f6c6c656374696f6e20697320736f6c64206f75742100000000600082015250565b600061346d601c83612a4a565b915061347882613437565b602082019050919050565b6000602082019050818103600083015261349c81613460565b9050919050565b7f596f75206861766520726563656976656420746865206d6178696d756d20616d60008201527f6f756e74206f66204e46547320616c6c6f7765642e0000000000000000000000602082015250565b60006134ff603583612a4a565b915061350a826134a3565b604082019050919050565b6000602082019050818103600083015261352e816134f2565b9050919050565b7f4e6f7420656e6f75676820657468657220746f207075726368617365204e465460008201527f732e000000000000000000000000000000000000000000000000000000000000602082015250565b6000613591602283612a4a565b915061359c82613535565b604082019050919050565b600060208201905081810360008301526135c081613584565b9050919050565b7f4e487b7100000000000000000000000000000000000000000000000000000000600052601160045260246000fd5b600061360182612afa565b91507fffffffffffffffffffffffffffffffffffffffffffffffffffffffffffffffff8203613633576136326135c7565b5b600182019050919050565b7f4f776e61626c653a2063616c6c6572206973206e6f7420746865206f776e6572600082015250565b6000613674602083612a4a565b915061367f8261363e565b602082019050919050565b600060208201905081810360008301526136a381613667565b9050919050565b7f4e6f206574686572206c65667420746f20776974686472617700000000000000600082015250565b60006136e0601983612a4a565b91506136eb826136aa565b602082019050919050565b6000602082019050818103600083015261370f816136d3565b9050919050565b600081905092915050565b50565b6000613731600083613716565b915061373c82613721565b600082019050919050565b600061375282613724565b9150819050919050565b7f5472616e73666572206661696c65642e00000000000000000000000000000000600082015250565b6000613792601083612a4a565b915061379d8261375c565b602082019050919050565b600060208201905081810360008301526137c181613785565b9050919050565b7f455243373231456e756d657261626c653a20676c6f62616c20696e646578206f60008201527f7574206f6620626f756e64730000000000000000000000000000000000000000602082015250565b6000613824602c83612a4a565b915061382f826137c8565b604082019050919050565b6000602082019050818103600083015261385381613817565b9050919050565b7f4e487b7100000000000000000000000000000000000000000000000000000000600052603260045260246000fd5b7f4552433732313a206f776e657220717565727920666f72206e6f6e657869737460008201527f656e7420746f6b656e0000000000000000000000000000000000000000000000602082015250565b60006138e5602983612a4a565b91506138f082613889565b604082019050919050565b60006020820190508181036000830152613914816138d8565b9050919050565b7f4552433732313a2062616c616e636520717565727920666f7220746865207a6560008201527f726f206164647265737300000000000000000000000000000000000000000000602082015250565b6000613977602a83612a4a565b91506139828261391b565b604082019050919050565b600060208201905081810360008301526139a68161396a565b9050919050565b7f4e6f7420656e6f756768204e465473206c65667420746f207265736572766500600082015250565b60006139e3601f83612a4a565b91506139ee826139ad565b602082019050919050565b60006020820190508181036000830152613a12816139d6565b9050919050565b7f4552433732314d657461646174613a2055524920717565727920666f72206e6f60008201527f6e6578697374656e7420746f6b656e0000000000000000000000000000000000602082015250565b6000613a75602f83612a4a565b9150613a8082613a19565b604082019050919050565b60006020820190508181036000830152613aa481613a68565b9050919050565b600081905092915050565b6000613ac182612a3f565b613acb8185613aab565b9350613adb818560208601612a5b565b80840191505092915050565b6000613af38285613ab6565b9150613aff8284613ab6565b91508190509392505050565b7f4f776e61626c653a206e6577206f776e657220697320746865207a65726f206160008201527f6464726573730000000000000000000000000000000000000000000000000000602082015250565b6000613b67602683612a4a565b9150613b7282613b0b565b604082019050919050565b60006020820190508181036000830152613b9681613b5a565b9050919050565b7f4552433732313a206f70657261746f7220717565727920666f72206e6f6e657860008201527f697374656e7420746f6b656e0000000000000000000000000000000000000000602082015250565b6000613bf9602c83612a4a565b9150613c0482613b9d565b604082019050919050565b60006020820190508181036000830152613c2881613bec565b9050919050565b7f4552433732313a207472616e736665722066726f6d20696e636f72726563742060008201527f6f776e6572000000000000000000000000000000000000000000000000000000602082015250565b6000613c8b602583612a4a565b9150613c9682613c2f565b604082019050919050565b60006020820190508181036000830152613cba81613c7e565b9050919050565b7f4552433732313a207472616e7366657220746f20746865207a65726f2061646460008201527f7265737300000000000000000000000000000000000000000000000000000000602082015250565b6000613d1d602483612a4a565b9150613d2882613cc1565b604082019050919050565b60006020820190508181036000830152613d4c81613d10565b9050919050565b6000613d5e82612afa565b9150613d6983612afa565b925082821015613d7c57613d7b6135c7565b5b828203905092915050565b6000613d9282612afa565b9150613d9d83612afa565b9250827fffffffffffffffffffffffffffffffffffffffffffffffffffffffffffffffff03821115613dd257613dd16135c7565b5b828201905092915050565b6000613de882612afa565b9150613df383612afa565b9250817fffffffffffffffffffffffffffffffffffffffffffffffffffffffffffffffff0483118215151615613e2c57613e2b6135c7565b5b828202905092915050565b7f4552433732313a20617070726f766520746f2063616c6c657200000000000000600082015250565b6000613e6d601983612a4a565b9150613e7882613e37565b602082019050919050565b60006020820190508181036000830152613e9c81613e60565b9050919050565b7f4552433732313a207472616e7366657220746f206e6f6e20455243373231526560008201527f63656976657220696d706c656d656e7465720000000000000000000000000000602082015250565b6000613eff603283612a4a565b9150613f0a82613ea3565b604082019050919050565b60006020820190508181036000830152613f2e81613ef2565b9050919050565b7f4e487b7100000000000000000000000000000000000000000000000000000000600052601260045260246000fd5b6000613f6f82612afa565b9150613f7a83612afa565b925082613f8a57613f89613f35565b5b828204905092915050565b6000613fa082612afa565b9150613fab83612afa565b925082613fbb57613fba613f35565b5b828206905092915050565b600081519050919050565b600082825260208201905092915050565b6000613fed82613fc6565b613ff78185613fd1565b9350614007818560208601612a5b565b61401081612a8e565b840191505092915050565b60006080820190506140306000830187612b8f565b61403d6020830186612b8f565b61404a6040830185612c25565b818103606083015261405c8184613fe2565b905095945050505050565b600081519050614076816129b0565b92915050565b6000602082840312156140925761409161297a565b5b60006140a084828501614067565b91505092915050565b7f4e487b7100000000000000000000000000000000000000000000000000000000600052603160045260246000fd5b7f4552433732313a206d696e7420746f20746865207a65726f2061646472657373600082015250565b600061410e602083612a4a565b9150614119826140d8565b602082019050919050565b6000602082019050818103600083015261413d81614101565b9050919050565b7f4552433732313a20746f6b656e20616c7265616479206d696e74656400000000600082015250565b600061417a601c83612a4a565b915061418582614144565b602082019050919050565b600060208201905081810360008301526141a98161416d565b905091905056fea2646970667358221220c64eae1de2bcda4a980feb7abcac248c5c7379e881de3a1c780b3aa83dba4c2664736f6c634300080d0033",
  "immutableReferences": {},
  "source": "//SPDX-License-Identifier: MIT\npragma solidity ^0.8.13;\n\nimport \"@openzeppelin/contracts/utils/Counters.sol\";\nimport \"@openzeppelin/contracts/access/Ownable.sol\";\nimport \"@openzeppelin/contracts/utils/math/SafeMath.sol\";\nimport \"@openzeppelin/contracts/token/ERC721/extensions/ERC721Enumerable.sol\";\n\ncontract NFTCollection is ERC721Enumerable, Ownable {\n    using SafeMath for uint256;\n    using Counters for Counters.Counter;\n\n    Counters.Counter private _tokenIds;\n    // The max number of NFTs in the collection\n    uint public constant MAX_SUPPLY = 10;\n    // The mint price for the collection\n    uint public constant PRICE = 0.00001 ether;\n    // The max number of mints per wallet\n    uint public constant MAX_PER_MINT = 5;\n\n    string public baseTokenURI;\n\n    constructor(string memory baseURI, string memory name, string memory symbol) ERC721(name, symbol) {\n        setBaseURI(baseURI);\n    }\n\n\n    function _baseURI() internal view virtual override returns (string memory) {\n        return baseTokenURI;\n    }\n\n    function setBaseURI(string memory _baseTokenURI) public onlyOwner {\n        baseTokenURI = _baseTokenURI;\n    }\n\n    function mintNFTs(uint _count) public payable {\n        uint totalMinted = _tokenIds.current();\n\n        require(totalMinted.add(_count) <= MAX_SUPPLY, \"This collection is sold out!\");\n        require(_count >0 && _count <= MAX_PER_MINT, \"You have received the maximum amount of NFTs allowed.\");\n        require(msg.value >= PRICE.mul(_count), \"Not enough ether to purchase NFTs.\");\n\n        for (uint i = 0; i < _count; i++) {\n            _mintSingleNFT();\n        }\n    }\n\n    function _mintSingleNFT() private {\n        uint newTokenID = _tokenIds.current();\n        _safeMint(msg.sender, newTokenID);\n        _tokenIds.increment();\n    }\n    \n    // Returns the ids of the NFTs owned by the wallet address\n    function tokensOfOwner(address _owner) external view returns (uint[] memory) {\n        uint tokenCount = balanceOf(_owner);\n        uint[] memory tokensId = new uint256[](tokenCount);\n\n        for (uint i = 0; i < tokenCount; i++) {\n            tokensId[i] = tokenOfOwnerByIndex(_owner, i);\n        }\n        return tokensId;\n    }\n    \n    // Withdraw the ether in the contract\n    function withdraw() public payable onlyOwner {\n        uint balance = address(this).balance;\n        require(balance > 0, \"No ether left to withdraw\");\n\n        (bool success, ) = (msg.sender).call{value: balance}(\"\");\n        require(success, \"Transfer failed.\");\n    }\n\n    // Reserve NFTs only for owner to mint for free\n    function reserveNFTs(uint _count) public onlyOwner {\n        uint totalMinted = _tokenIds.current();\n\n        require(totalMinted.add(_count) < MAX_SUPPLY, \"Not enough NFTs left to reserve\");\n\n        for (uint i = 0; i < _count; i++) {\n            _mintSingleNFT();\n        }\n    }\n}\n\n",
  "sourcePath": "/home/ova/Desktop/nft/contracts/NFTCollection.sol",
  "compiler": {
    "name": "solc",
    "version": "0.8.13+commit.abaa5c0e.Emscripten.clang"
  },
  "schemaVersion": "3.4.11",
  "updatedAt": "2023-02-07T15:14:23.642Z",
  "networkType": "ethereum",
  "devdoc": {
    "kind": "dev",
    "methods": {
      "approve(address,uint256)": {
        "details": "See {IERC721-approve}."
      },
      "balanceOf(address)": {
        "details": "See {IERC721-balanceOf}."
      },
      "getApproved(uint256)": {
        "details": "See {IERC721-getApproved}."
      },
      "isApprovedForAll(address,address)": {
        "details": "See {IERC721-isApprovedForAll}."
      },
      "name()": {
        "details": "See {IERC721Metadata-name}."
      },
      "owner()": {
        "details": "Returns the address of the current owner."
      },
      "ownerOf(uint256)": {
        "details": "See {IERC721-ownerOf}."
      },
      "renounceOwnership()": {
        "details": "Leaves the contract without owner. It will not be possible to call `onlyOwner` functions anymore. Can only be called by the current owner. NOTE: Renouncing ownership will leave the contract without an owner, thereby removing any functionality that is only available to the owner."
      },
      "safeTransferFrom(address,address,uint256)": {
        "details": "See {IERC721-safeTransferFrom}."
      },
      "safeTransferFrom(address,address,uint256,bytes)": {
        "details": "See {IERC721-safeTransferFrom}."
      },
      "setApprovalForAll(address,bool)": {
        "details": "See {IERC721-setApprovalForAll}."
      },
      "supportsInterface(bytes4)": {
        "details": "See {IERC165-supportsInterface}."
      },
      "symbol()": {
        "details": "See {IERC721Metadata-symbol}."
      },
      "tokenByIndex(uint256)": {
        "details": "See {IERC721Enumerable-tokenByIndex}."
      },
      "tokenOfOwnerByIndex(address,uint256)": {
        "details": "See {IERC721Enumerable-tokenOfOwnerByIndex}."
      },
      "tokenURI(uint256)": {
        "details": "See {IERC721Metadata-tokenURI}."
      },
      "totalSupply()": {
        "details": "See {IERC721Enumerable-totalSupply}."
      },
      "transferFrom(address,address,uint256)": {
        "details": "See {IERC721-transferFrom}."
      },
      "transferOwnership(address)": {
        "details": "Transfers ownership of the contract to a new account (`newOwner`). Can only be called by the current owner."
      }
    },
    "version": 1
  },
  "userdoc": {
    "kind": "user",
    "methods": {},
    "version": 1
  }
}